:020000020000FC
:0200000055C0E9
:1000AC000FEF0DBF00E10EBF2224ECEFF2E0C0E138
:1000BC00D1E00591099304910883EEEFF2E0C2E1DF
:1000CC00D1E00591099304910883000047D000000A
:1000DC00E0E0F3E0C0E3D1E00591099304910883DB
:1000EC00E2E0F3E0C2E3D1E00591099304910883C7
:1000FC00000046D00000E4E0F3E0C0E5D1E005915B
:10010C0009930591099304910883E8E0F3E0C3E5B2
:10011C00D1E005910993059109930491088300009E
:10012C003ED00000ECE0F3E0C0E3D1E00591099390
:10013C0004910883EEE0F3E0C2E3D1E0059109936A
:10014C0004910883E0E1F3E0C2E1D1E00591099369
:10015C000491088300006FD00000FFCFA0E1B1E054
:10016C00C2E1D1E0E0E2F1E03D904990340C3192F3
:10017C003C904880341C31923324321C30820895D8
:10018C00A0E3B1E0C2E3D1E0E0E4F1E03D904990BE
:10019C00341831923C9048803408308208953F9254
:1001AC004F921F920F922F92BF93AF93DF93CF93E7
:1001BC00FF93EF931F932F932224E0E6F1E021921B
:1001CC0021922192219221922082C3E5D1E0E0E696
:1001DC00F1E013E0EF93FF93A0E5B1E023E03D9055
:1001EC004880349C3080300C31923080311C30820D
:1001FC0060F4EF93FF93E39509F4F3953080339417
:10020C0030823320C1F3FF91EF912A9541F7FF9192
:10021C00EF91319621961A95E9F62F911F91EF9156
:10022C00FF91CF91DF91AF91BF912F900F901F90C5
:10023C004F903F900895A4DFA0E4B1E0C0E1D1E07D
:10024C000D9109930C910883E0E2F1E02192219247
:10025C00208284DFA0E2B1E0C0E5D1E00D910993EA
:10026C000D9109930C910883A0E2B1E0C3E5D1E0B4
:10027C000D9109930D9109930C91088390DF0895CA
:10028C003F924F921F920F922F92BF93AF93DF9397
:10029C00CF93FF93EF931F932F932224C2E0D1E0CF
:1002AC00E4E0F1E012E0A0E0B1E022E03D90488013
:1002BC00349C31904190030C141C3080321C3082E1
:1002CC001292029231962A9589F7319721961A95B6
:1002DC0051F72F911F91EF91FF91CF91DF91AF913A
:1002EC00BF912F900F901F904F903F9008950895BD
:1002FC00BAFCFFFFB9FC20E4FFFFFF00FFFFFF008B
:06030C00BAFC2220BB2117
:00000001FF
