:020000020000FC
:0200000055C0E9
:1000AC000FEF0DBF0AE00EBF0FEF04B900E00AB965
:1000BC000FEF0BB901EA0093800009E00093810077
:1000CC0010E000E0009389000093880000938B00FF
:1000DC0000938A0000E905B909B107FF05C004FFC8
:1000EC0008C005FF0BC0F8CF1F3059F013950ED088
:1000FC0008C0103031F01A9509D003C01FE006D0AB
:10010C0000C009B1007B003BE1F7E6CF0F921F92D4
:10011C002F9321E1129F00E000938900002D0093A2
:10012C00880000E000938B00002D00938A00012FC3
:0C013C00006905B92F911F900F900895E5
:00000001FF
